:1000000009C00EC00DC00CC00BC00AC009C008C09A
:1000100007C006C011241FBECFE9CDBF70D0A3C05A
:10002000EFCF2FB7F8949AE0E8B3EF7DE8BB00007C
:100030000000000000000000EDE3FFE13197F1F760
:10004000E8B380FDE06280FFEF7DE8BB0894879510
:100050009A9591F72FBF089587B38D6187BBB998A3
:10006000089528E030E080FDC09A80FFC098869512
:10007000C29AC29821503109B1F7089528E030E0C2
:1000800080E0C09A880F96B396959170890FC29AB6
:10009000C29821503109A9F70895DEDF88B3877E21
:1000A00088BB089588B3877E88BB089588B3877E10
:1000B00088BBC39A08951F93CF93DF93D82F192F2E
:1000C000C62FF0DF80E4CDDF80E0CBDF812FC9DFFA
:1000D0008D2FC7DF8C2FC5DFDF91CF911F91E6CF2A
:1000E000CF93DF93EC01DEDF80ECBBDF80E0B9DF94
:1000F0008D2FB7DF8C2FB5DFDF91CF91BFCFC59AA2
:10010000BD9A88E48EDF89E68CDF8AE08ADFC5DF6E
:1001100063E190E080E0CFDF67E381E090E0CBDF58
:1001200090E080E0DDDFD82F81E090E0D9DFC82FBC
:100130008D2F82958F70805D74DF8D2F8F70805D25
:1001400070DF8C2F82958F70805D6BDF8C2F8F70AE
:10015000805D67DF8AE065DFC1E48C2F62DFCF5FFF
:0A016000CB35D8F3F9CFF894FFCFA8
:00000001FF
