:100000000C9438000C9442000C9442000C94420072
:100010000C9442000C9442000C9442000C94420058
:100020000C9442000C9442000C9442000C94420048
:100030000C9442000C9442000C9442000C94420038
:100040000C9442000C9442000C9442000C94420028
:100050000C9442000C9442000C9442000C94420018
:100060000C9442000C9442000C9442000C94420008
:1000700011241FBECFEFD0E1DEBFCDBF0E94D30061
:100080000C94F5000C9400002FB7F8949AE0EBB1B3
:10009000EE7FEBB900000000000000000000EEE37E
:1000A000F3E03197F1F70000EBB180FDE16080FFF4
:1000B000EE7FEBB9089487959A9589F72FBF08953D
:1000C0008FEF81B98AB18C6F8AB984B18F6184B99D
:1000D00085B18C6085B92C98089582B9892F90E0FC
:1000E0002BB12370AC014C7F5527242B2BB925B1A4
:1000F0002C7F83709927822B85B90895CF93C62FC3
:100100000E946D002FE788E391E0215080409040ED
:10011000E1F700C000008FEF87B9C8B92FE788E387
:1001200091E0215080409040E1F700C000002A9803
:100130002FE788E391E0215080409040E1F700C034
:10014000000085B18C6085B92FE788E391E02150EC
:1001500080409040E1F700C00000CF9108950E94D8
:100160006D002FE738E381E0215030408040E1F717
:1001700000C0000017B82B989FE728E331E09150AA
:1001800020403040E1F700C0000086B19FE728E33F
:1001900031E0915020403040E1F700C0000095B1BF
:1001A0009C6095B90895589A509A0E94600061E445
:1001B00090E080E00E947E0090E080E00E94AF002E
:1001C0006AE581E090E00E947E0081E090E00E947C
:1001D000AF0090E080E00E94AF00C82F81E40E9451
:0E01E00044008C2F0E944400E2CFF894FFCF21
:00000001FF
