:100000000C9438000C9455000C9455000C94550039
:100010000C9455000C9455000C9455000C9455000C
:100020000C9455000C9455000C9455000C945500FC
:100030000C9455000C9455000C9455000C945500EC
:100040000C9455000C9455000C9455000C945500DC
:100050000C9455000C9455000C9455000C945500CC
:100060000C9455000C9455000C9455000C945500BC
:1000700011241FBECFEFD0E1DEBFCDBF11E0A0E065
:10008000B1E0ECEDF3E002C005900D92AE31B107A6
:10009000D9F721E0AEE1B1E001C01D92A637B20769
:1000A000E1F70E946C010C94EC010C94000083E3D6
:1000B0008093C40088E18093C1000895CF93C82F36
:1000C000873061F4609174017091750186E191E06F
:1000D0000E947D0190E080E0CF9108958A3019F46C
:1000E0008DE00E945E008091C00085FFFCCFC09330
:1000F000C600F0CFCF92DF92EF92FF920F931F9343
:10010000CF93DF93182F092F80916E0190916F018B
:10011000892BF9F4CEE1D1E06E018091C00087FF18
:10012000FCCF8091C00084FDD4C08091C00083FDCD
:1001300056C08091C6008D3039F58AE08883612FE2
:10014000702F0E945E008EE191E090936F0180938A
:100150006E01E0916E01F0916F01CF0101969093D5
:100160006F0180936E0180818A3021F410926F01BB
:1001700010926E0190E0DF91CF911F910F91FF904F
:10018000EF90DF90CF9008958A30B9F2893099F0DE
:1001900090EE980F9F3510F0803AA8F091E0CD36A0
:1001A000D90759F4609174017091750186E191E06D
:1001B0000E947D01B2CF80E2F1CF8993612F702F31
:1001C0000E945E00AACF853109F47EC058F48830C1
:1001D00071F0823109F441C0833009F09ECF8FEF76
:1001E0009FEFC9CF8731D1F08F3709F096CFE1E08B
:1001F000CE31DE0709F008F490CF612F702F88E030
:100200000E945E00612F702F80E20E945E00612FCD
:10021000702F88E00E945E0021977FCF7E01E7016A
:10022000EEE1EE16E1E0FE0609F008F476CFF70104
:1002300082917F01803209F470CF612F702F88E0A6
:100240000E945E00612F702F80E20E945E00612F8D
:10025000702F88E00E945E00E2CF612F702F8DE04A
:100260000E945E008EE1E82E81E0F82EEC16FD067D
:1002700008F053CF612F702FF70181917F010E9409
:100280005E00F4CF612F702F88E00E945E00612F26
:10029000702F80E20E945E00612F702F88E00E9424
:1002A0005E00F1E0EF1AF1088EE1E81681E0F80651
:1002B00009F040F791E0CE31D90740F0C6018C1B20
:1002C0009D0BC80FD91F29CF7E01EECF90E080E0B3
:1002D000F8CF8EEF9FEF4FCF0E94570080E091E064
:1002E00090937101809370019093730180937201D8
:1002F0008EE091E00E94A501FBCFEF92FF920F9359
:100300001F93CF93DF938B01DB0113962C91F12C7C
:10031000E12C21FD10C0EE24EA94FE2C10C0D8017F
:100320001896ED91FC91B8010995892B19F0EE24EE
:10033000EA94FE2CCE01EC0189918111F0CFC70126
:10034000CDB7DEB7E6E00C94DD010F931F93CF939A
:10035000DF93E0917201F0917301238110E000E0DE
:1003600021FD0EC00FEF1FEFC801DF91CF911F914C
:100370000F9108950995892B11F00FEF1FEFCE0112
:10038000EC0189916091720170917301DB01189603
:10039000ED91FC918111EECF8AE00995892B21F333
:1003A000E1CF2A88398848885F846E847D848C8474
:1003B0009B84AA84B984C884DF80EE80FD800C8190
:1003C0001B81AA81B981CE0FD11D0FB6F894DEBF73
:0C03D0000FBECDBFED010895F894FFCFE3
:1003DC0000000003000000005E007A000000486589
:0E03EC006C6C6F3F0A002A72696E672A0A0065
:00000001FF
