:100000000C9438000C9455000C9455000C94550039
:100010000C9455000C9455000C9455000C9455000C
:100020000C9455000C9455000C9455000C945500FC
:100030000C9455000C9455000C9455000C945500EC
:100040000C9455000C9455000C9455000C945500DC
:100050000C9455000C9455000C9455000C945500CC
:100060000C9455000C9455000C9455000C945500BC
:1000700011241FBECFEFD0E1DEBFCDBF11E0A0E065
:10008000B1E0E8EBFBE002C005900D92AC38B1079F
:10009000D9F721E0ACE8B1E001C01D92A43EB2075F
:1000A000E1F70E9446020C94DA050C9400000F93CD
:1000B0001F93CF93DF93D0E0C0E00EE011E005C0C6
:1000C0002196C11580E1D807A9F06C2FCE010E94BE
:1000D000D801C111F5CFDF93CF931F930F930E94E7
:1000E000E7020F900F900F900F902196C11580E1BD
:1000F000D80759F7DF91CF911F910F9108950F9372
:100100001F93CF93DF93D0E0C0E004E111E0CE0174
:100110000E9414029E0133278217130671F01F926A
:100120008F93DF93CF931F930F930E94E7020F905B
:100130000F900F900F900F900F902196C11580E1B6
:10014000D80729F7DF91CF911F910F910895209142
:10015000E2013091E30147E050E061E070E083E8C4
:1001600091E00C94B9028FEC8093C40088E18093F5
:10017000C1000895CF93C82F873081F08A3051F0A5
:100180009091C00095FFFCCFC093C60090E080E046
:10019000CF9108958DE00E94BA00F2CF0E94A7008F
:1001A00090E080E0CF910895AF92BF92DF92EF92FE
:1001B000FF920F931F93CF93DF938C01E091DC01AB
:1001C000F091DD013097C9F0CF0101969093DD01E8
:1001D0008093DC0180818A3059F090E0DF91CF91EB
:1001E0001F910F91FF90EF90DF90BF90AF90089517
:1001F0001092DD011092DC01F0CFCCE8D1E090E26A
:10020000E92E28E0F22E3DE0D32E2091C00027FFFA
:10021000FCCF8091C00084FDBBC08091C00083FDF5
:1002200068C08091C6008D3009F4AAC08A3009F4F4
:10023000A7C0893009F47DC090EE980F9F3510F06B
:10024000803A50F091E0CB3DD90709F478C089930A
:10025000B8010E94BA00D9CF853109F473C0F8F40F
:10026000883009F44CC0823109F040C08091C00050
:1002700085FFFCCFD092C60091E0CC38D90729F297
:1002800020F28CE8A82E81E0B82EB801F50181910A
:100290005F010E94BA00CA15DB05B9F7B6CF8731F6
:1002A00059F5E1E0CC38DE0709F008F4AECFFE01E5
:1002B000EF018291803209F4A8CF2091C00025FF80
:1002C000FCCFF092C6002091C00025FFFCCFE09249
:1002D000C6002091C00025FFFCCFF092C60081E04F
:1002E000EC38F80729F7CCE8D1E08FCF833009F05C
:1002F0008CCF8FEF9FEF72CF8F3709F086CF81E0E1
:10030000CC38D80709F008F480CF8091C00085FF71
:10031000FCCFF092C6008091C00085FFFCCFE09238
:10032000C6008091C00085FFFCCFF092C6002197E7
:100330006CCF80E291E0CB3DD90709F088CF0E94D5
:10034000A70063CFF1E0CC38DF0709F008F45DCFF8
:100350002091C00025FFFCCFF092C6002091C00084
:1003600025FFFCCFE092C6002091C00025FFFCCF06
:10037000F092C6002197F1E0CC38DF0749F745CF6E
:100380008AE08883B8010E94BA00ECE8F1E01CCF53
:100390008EEF9FEF23CF8FEF81B98AB18C6F8AB92F
:1003A00084B18F6184B985B18C6085B92C9808952A
:1003B00082B9892F90E02BB12370AC014C7F552777
:1003C000242B2BB925B12C7F83709927822B85B9DB
:1003D0002FE788E391E0215080409040E1F700C092
:1003E00000008FEF87B968B92FE788E391E02150CB
:1003F00080409040E1F700C000002A982FE788E392
:1004000091E0215080409040E1F700C0000085B1AC
:100410008C6085B92FE788E391E0215080409040BF
:10042000E1F700C00000089582B9892F90E02BB158
:100430002370AC014C7F5527242B2BB925B12C7F81
:1004400083709927822B85B92FE738E381E021500B
:1004500030408040E1F700C0000017B82B989FE7BC
:1004600028E331E0915020403040E1F700C0000027
:1004700086B19FE728E331E0915020403040E1F71A
:1004800000C0000095B19C6095B908950E94B3002A
:100490000E94CB0180E091E09093DF018093DE0128
:1004A0009093E1018093E00186E391E00E94FB02DA
:1004B0002FEF83ED90E3215080409040E1F700C0A2
:1004C0000000CDE6D1E084E491E00E94FB028FECD5
:1004D00097E00197F1F700C000006AE590E080E046
:1004E0000E94D80190E080E00E941402182F89E455
:1004F00091E00E94FB021F921F93DF93CF930E9413
:10050000E7028FEC97E00197F1F700C000006EEF73
:1005100081E090E00E94D80181E090E00E94140206
:10052000182F89E491E00E94FB021F921F93DF9332
:10053000CF930E94E7028FEC97E00197F1F700C09C
:10054000000090E080E00E941402182F89E491E0FE
:100550000E94FB021F921F93DF93CF930E94E7023A
:100560008DB79EB70C960FB6F8949EBF0FBE8DBF89
:10057000AACFB0E0A0E0EFEBF2E00C94A9054C01AB
:100580007B016A018901D90113968C91D0E0C0E00A
:1005900081FF17C0CC15DD05A1F05401AE0CBF1CC6
:1005A0000BC0D8011896ED91FC91B801D4018D9142
:1005B0004D010995892B29F48A149B0491F7219602
:1005C000E9CFCE01CDB7DEB7ECE00C94C505B0E0C5
:1005D000A0E0EDEEF2E00C94B305FE0135966191DA
:1005E0007191AF018091E0019091E1010E94270398
:1005F000E2E00C94CF050F931F93CF93DF93E0912C
:10060000E001F091E101238110E000E021FD0EC046
:100610000FEF1FEFC801DF91CF911F910F91089548
:100620000995892B11F00FEF1FEFCE01EC01899195
:100630006091E0017091E101DB011896ED91FC9170
:100640008111EECF8AE00995892B21F3E1CFAFE04C
:10065000B0E0EDE2F3E00C94A3057C013B018A01DC
:10066000DC0117961C921E92169713968C9181FFAF
:10067000C3C19AE0292EFE0131964F01D70113968E
:100680009C91F30193FD859193FF81913F01882314
:1006900009F448C1853239F493FD859193FF819126
:1006A0003F01853229F4B70190E00E941505E6CF9D
:1006B000B12C412C512CBFE1B51538F08B3209F12A
:1006C00088F4803201F1833221F157FC3AC020EDE9
:1006D000280F2A3040F556FE1FC0B29C200D112471
:1006E000B22E06C08D3291F0803379F7689450F8BD
:1006F000F30193FD859193FF81913F018111DBCF40
:1007000020C0689451F8689452F8F2CF689453F876
:10071000EFCF689454F8ECCF429C200D1124422E68
:10072000689455F8E5CF8E3229F456FCFBC06894E6
:1007300056F8DECF8C3619F4689457F8D9CF88363E
:10074000B9F2982F9F7D95549330C0F08336A1F174
:100750008337C1F1833509F05BC0D801CD90DD90BE
:100760008D016B2D70E056FC02C06FEF7FEFC6016C
:100770000E94FF045C01689457F80AC00C5F1F4F89
:10078000EFE3E983AA24A394B12C6401E89457F819
:1007900053FC04C04A141B0409F018F5342CA114AE
:1007A000B10431F5332009F469CFB70180E290E05C
:1007B0000E9415053A94F6CFD8018C9189830E5F7B
:1007C0001F4FE0CFF801C190D1908F016B2D70E0E9
:1007D00056FC02C06FEF7FEFC6010E940A055C0164
:1007E000D5CFB70180E290E00E9415054A94D2CFA0
:1007F000F60157FC859157FE81916F01B70190E09A
:100800000E94150531103A94B1E0AB1AB108C7CF78
:10081000843619F0893609F074C0F80157FE6AC0B1
:1008200061917191819191918F01E52DEF76DE2E8D
:1008300097FF09C090958095709561957F4F8F4F78
:100840009F4F6894D7F82AE030E0A4010E94450544
:10085000C82EC818AC2C5D2CD6FE0CC0E89450F8FD
:10086000CB1440F4D4FE05C0D2FC03C05D2D5E7EE7
:10087000552EAB2C54FE98C0FE01EC0DF11D80816D
:10088000803309F08AC0652D697E562E752D7870EB
:10089000372E53FC98C050FE92C0BC2CA41418F400
:1008A0004C0CB42CBA1854FE94C0B70180E390E00D
:1008B0000E94150552FE09C088E790E051FE02C073
:1008C00088E590E0B7010E941505CB1408F48DC0AF
:1008D000CA94D12C8FEFC81AD80AC80CD91CD601DB
:1008E0008E916D01B70190E00E9415058C149D0456
:1008F000B1F758CF61917191072E000C880B990BBD
:1009000093CFD52CE894D4F82AE030E0853739F13C
:10091000F52DF97FDF2E8037A9F058F48835A9F03E
:100920008F36D9F0F701868197812F96E2E10C94FA
:10093000BF058837B9F7D4FE02C06894D2F820E129
:1009400030E00DC06894D4F8F6CF54FE03C02F2FCA
:100950002660D22E20E132E002C028E030E0F8012B
:10096000D7FE15C041915191619171914C875D877E
:100970006E877F878F01A4016C857D858E859F851D
:100980000E944505C82EC818E894D7F863CF819116
:100990009191AC0170E060E0E9CF52FC02C0A394F9
:1009A00075CFA394A39472CF852D867809F46ECF6A
:1009B000F6CFB70180E290E00E941505A394A4143D
:1009C000C0F3312C70CF342C3A18A41408F46BCF38
:1009D000F8CF852D867809F478CF8BE251FE80E23E
:1009E00057FC8DE2B70190E06ECFB70180E390E055
:1009F0000E941505BA9469CF8FEF9FEF96CFFC0147
:100A00000590615070400110D8F7809590958E0F39
:100A10009F1F0895FC016150704001900110D8F7AC
:100A2000809590958E0F9F1F08950F931F93CF93DE
:100A3000DF93182F092FEB018B8181FD09C01FEF78
:100A40000FEF812F902FDF91CF911F910F9108957C
:100A500082FF14C02E813F818C819D812817390728
:100A60003CF4E881F981CF01019699838883108352
:100A70008E819F8101969F838E83E3CFE885F985E0
:100A8000812F0995892BA1F3DACFFA01AA27283003
:100A900051F1203181F1E8946F936E7F6E5F7F4F4B
:100AA0008F4F9F4FAF4FB1E03ED0B4E03CD0670FC7
:100AB000781F891F9A1FA11D680F791F8A1F911D1A
:100AC000A11D6A0F711D811D911DA11D20D009F46A
:100AD00068943F912AE0269F11243019305D3193AC
:100AE000DEF6CF010895462F4770405D4193B3E095
:100AF0000FD0C9F7F6CF462F4F70405D4A3318F03C
:100B0000495D31FD4052419302D0A9F7EACFB4E0EC
:100B1000A6959795879577956795BA95C9F70097A4
:100B20006105710508959B01AC010A2E0694579545
:100B3000479537952795BA95C9F7620F731F841F9C
:100B4000951FA01D08952F923F924F925F926F9232
:100B50007F928F929F92AF92BF92CF92DF92EF924D
:100B6000FF920F931F93CF93DF93CDB7DEB7CA1BCE
:100B7000DB0B0FB6F894DEBF0FBECDBF09942A88F9
:100B8000398848885F846E847D848C849B84AA84A1
:100B9000B984C884DF80EE80FD800C811B81AA812E
:100BA000B981CE0FD11D0FB6F894DEBF0FBECDBFF9
:080BB000ED010895F894FFCF58
:100BB8000000000300000000BA00D40000005B251C
:100BC800785D0A004572726F722072656164696EA1
:100BD80067206D656D2061742025782C20676F74FF
:100BE800202578210A0048656C6C6F2C20554152ED
:100BF80054210A0041434B3F004D656D6F727920C7
:100C08007772697474656E2E204C65742773207230
:100C1800656164206974206261636B2E004D656DA7
:100C28006F7279207265616420646F6E653A202561
:0C0C3800780A002A72696E672A0A000020
:00000001FF
